:0400000007EF00F016
:100008005F82B5ED2CF044EF28F0000E806E0F0EE5
:10001800C112CD8ECD8CCF0ECD16CD86CD92CD9082
:10002800000ECF6E000ECE6E030E0001BE6F8A0E5C
:10003800BD6F550EE82EFED7BD2FFCD7BE2FFAD7C1
:1000480000D0800E0F6E250E106E000E116E000E81
:10005800126ED4EC27F0030E0001BE6F8A0EBD6F3E
:10006800550EE82EFED7BD2FFCD7BE2FFAD700D0ED
:1000780030EC2CF0030E0001BE6F8A0EBD6F550EDA
:10008800E82EFED7BD2FFCD7BE2FFAD700D00FEC35
:100098002CF0030E0001BE6F8A0EBD6F550EE82EC0
:1000A800FED7BD2FFCD7BE2FFAD700D0010E076EA2
:1000B800010E086E000E096E000E0A6E030EC6ECE5
:1000C8001EF00009D8A46BEF00F06DEF00F076EF9A
:1000D80000F0770E00019A6F7F0E9B6FD6EC2BF025
:1000E80074EF00F0030E0001BE6F8A0EBD6F550E4F
:1000F800E82EFED7BD2FFCD7BE2FFAD700D0030EAF
:100108000001BE6F8A0EBD6F550EE82EFED7BD2FBB
:10011800FCD7BE2FFAD700D0ADEC2CF0030E0001AF
:10012800BE6F8A0EBD6F550EE82EFED7BD2FFCD7C9
:10013800BE2FFAD700D04E0E09EC23F0030E0001B3
:10014800BE6F8A0EBD6F550EE82EFED7BD2FFCD7A9
:10015800BE2FFAD700D0010E066E010E79EC28F0FA
:10016800000E046E7F0E056EFAEC25F0020E066E88
:10017800010E79EC28F0330E046E7F0E056EFAEC52
:1001880025F02E0E026E7E0E036E98EC27F0040EFC
:10019800026E7E0E036E98EC27F0FE0E0001BE6F15
:1001A800A70EBD6F650EE82EFED7BD2FFCD7BE2F5C
:1001B800FAD700D054EC27F028C014F129C015F163
:1001C8002AC016F12BC017F116EC29F028C010F13F
:1001D80029C011F12AC012F12BC013F1E3EC28F069
:1001E80028C00CF129C00DF12AC00EF12BC00FF167
:1001F800F40E1B6E000E1C6EB8EC18F0F00E1B6EA1
:10020800000E1C6E2CEC0CF0B20E096E010E0A6E7C
:1002180023EC1EF0710E066E010E076E9E0E086E20
:10022800010E096E970E0A6E010E0B6E650E0C6EAE
:10023800010E0D6E580E0E6E010E0F6E8F0E106EA3
:10024800010E116E870E126E010E136EFD0E146EE6
:10025800000E156EFFEC1AF0D8A035EF01F037EF5D
:1002680001F00EEF01F07D0E066E010E076EA50E71
:10027800086E010E096E970E0A6E010E0B6EFD0ECA
:100288000C6E000E0D6EF5EC1FF0D8A04EEF01F0CD
:1002980050EF01F037EF01F0000E0001EF6F040E90
:1002A800EF6559EF01F05BEF01F00FEF02F085EF1A
:1002B80002F014C1D7F015C1D8F016C1D9F017C192
:1002C800DAF0320E016E010E026E110E036E7F0E11
:1002D800046E000E066E120E056E2CEC2AF030EF3E
:1002E80002F010C1D7F011C1D8F012C1D9F013C172
:1002F800DAF0320E016E010E026E440E036E7F0EAE
:10030800046E000E066E120E056E2CEC2AF030EF0D
:1003180002F00CC1D7F00DC1D8F00EC1D9F00FC151
:10032800DAF0320E016E010E026E220E036E7F0E9F
:10033800046E000E066E120E056E2CEC2AF030EFDD
:1003480002F0F4C001F0F5C002F0F6C003F0F7C007
:1003580004F0010EDBEC1BF001C00FF002C010F03E
:1003680003C011F004C012F0000E136E000E146EDC
:10037800C80E156E420E166EEBEC16F00FC0D7F0D5
:1003880010C0D8F011C0D9F012C0DAF0320E016EE8
:10039800010E026E550E036E7F0E046E000E066E81
:1003A800120E056E2CEC2AF030EF02F0F0C001F0CE
:1003B800F1C002F0F2C003F0F3C004F0000EDBEC71
:1003C8001BF001C00FF002C010F003C011F004C010
:1003D80012F0000E136E000E146EC80E156E420E4B
:1003E800166EEBEC16F00FC0D7F010C0D8F011C0A5
:1003F800D9F012C0DAF0320E016E010E026E660EEE
:10040800036E7F0E046E000E066E120E056E2CEC47
:100418002AF030EF02F0EF51BD6FBE6BBE51000AFB
:10042800D8B419EF02F030EF02F0BD51000AD8B489
:100438005DEF01F0010AD8B475EF01F0030AD8B4F2
:100448008DEF01F0010AD8B4A5EF01F0070AD8B47E
:10045800DAEF01F030EF02F0CA0E00019A6F7F0E5A
:100468009B6F320E9C6F010E9D6FD7C09EF0D8C057
:100478009FF0D9C0A0F0DAC0A1F0D6EC2BF00001B3
:10048800EE05D8A44AEF02F04CEF02F081EF02F03B
:10049800010E066E010E79EC28F0320E046E010E84
:1004A800056EFAEC25F0460E00019A6F010E9B6F5F
:1004B800980E9C6F7F0E9D6FD7C09EF0D8C09FF09E
:1004C800D9C0A0F0DAC0A1F0DAEC29F0020E066E6D
:1004D800010E79EC28F0460E046E010E056EFAEC5A
:1004E80025F0660E0001BE6F760EBD6FC10EE82EB8
:1004F800FED7BD2FFCD7BE2FFAD70001EF2B53EF45
:1005080001F0B20E026E010E036E98EC27F0750E24
:10051800026E7E0E036E98EC27F00001EE05D8A45B
:1005280098EF02F09AEF02F00EEF03F0000EEF6F73
:100538000F0EEF65A2EF02F0A4EF02F0A6EF02F0B3
:10054800B7EF02F0B20EEF25D96EDA6A010EDA22A1
:10055800460EEF25E16EE26A010EE222DFCFE7FFE9
:10056800EF2B9CEF02F0010E066E010E79EC28F0DD
:10057800460E046E010E056EFAEC25F0100E000111
:10058800EF6F110EEF65CBEF02F0CDEF02F0CFEF7A
:1005980002F0E0EF02F0B20EEF25D96EDA6A010E32
:1005A800DA22360EEF25E16EE26A010EE222DFCF93
:1005B800E7FFEF2BC5EF02F0020EEF6F0F0EEF65AE
:1005C800E8EF02F0EAEF02F0ECEF02F0F7EF02F0EA
:1005D800460EEF25D96EDA6A010EDA22200EDF6E9A
:1005E800EF2BE2EF02F0020E066E010E79EC28F016
:1005F800460E046E010E056EFAEC25F0660E00013B
:10060800BE6F760EBD6FC10EE82EFED7BD2FFCD78C
:10061800BE2FFAD7710E00019A6F7D0E9B6F71C1C4
:100628009CF09D6B72C19EF09F6B73C1A0F0A16B93
:1006380074C1A2F0A36B75C1A4F0A56B76C1A6F036
:10064800A76BD6EC2BF0550E00019A6F7D0E9B6FB1
:100658009EC19CF09D6B9FC19EF09F6BA0C1A0F0B6
:10066800A16BA1C1A2F0A36BA2C1A4F0A56BA3C109
:10067800A6F0A76BD6EC2BF0150E00019A6F7D0E35
:100688009B6F65C19CF09D6B66C19EF09F6B67C1B7
:10069800A0F0A16B68C1A2F0A36B6AC1A4F0A56B1E
:1006A8006BC1A6F0A76B6CC1A8F0A96B6FC1AAF0CB
:1006B800AB6BD6EC2BF0F10E00019A6F7C0E9B6FA2
:1006C80058C19CF09D6B59C19EF09F6B5AC1A0F018
:1006D800A16B5BC1A2F0A36B5CC1A4F0A56B5EC16A
:1006E800A6F0A76B5FC1A8F0A96B60C1AAF0AB6BBD
:1006F80063C1ACF0AD6BD6EC2BF0190E00019A6F0C
:100708007E0E9B6F7D0E9C6F010E9D6FD6EC2BF0BD
:10071800410E00019A6F7E0E9B6F8F0E9C6F010E2B
:100728009D6FD6EC2BF0660E00019A6F7E0E9B6FC4
:10073800870E9C6F010E9D6FD6EC2BF0EE0E00011C
:100748009A6F7D0E9B6FA50E9C6F010E9D6FD6EC68
:100758002BF00001EE05D8A4B4EF03F0B6EF03F0D8
:100768000EEF06F0460E016E010E026ECD0E036E00
:100778007E0E046E000E066E110E056E2CEC2AF02D
:10078800010E066E010E79EC28F0460E046E010E7D
:10079800056EFAEC25F0460E00019A6F010E9B6F6C
:1007A800D70E9C6F7D0E9D6F71C19EF09F6B72C1BD
:1007B800A0F0A16B73C1A2F0A36B74C1A4F0A56BE8
:1007C80075C1A6F0A76B76C1A8F0A96BDAEC29F081
:1007D800020E066E010E79EC28F0460E046E010E2C
:1007E800056EFAEC25F0660E0001BE6F760EBD6F41
:1007F800C10EE82EFED7BD2FFCD7BE2FFAD7460E66
:10080800016E010E026E890E036E7E0E046E000EDE
:10081800066E110E056E2CEC2AF0010E066E010E06
:1008280079EC28F0460E046E010E056EFAEC25F000
:10083800460E00019A6F010E9B6FC00E9C6F7D0ED5
:100848009D6F9EC19EF09F6B9FC1A0F0A16BA0C140
:10085800A2F0A36BA1C1A4F0A56BA2C1A6F0A76BDF
:10086800A3C1A8F0A96BDAEC29F0020E066E010EFE
:1008780079EC28F0460E046E010E056EFAEC25F0B0
:10088800660E0001BE6F760EBD6FC10EE82EFED754
:10089800BD2FFCD7BE2FFAD7460E016E010E026E91
:1008A800AB0E036E7E0E046E000E066E110E056E04
:1008B8002CEC2AF0010E066E010E79EC28F0460E9B
:1008C800046E010E056EFAEC25F0460E00019A6FD3
:1008D800010E9B6FA70E9C6F7D0E9D6F65C19EF0EC
:1008E8009F6B66C1A0F0A16B67C1A2F0A36B68C142
:1008F800A4F0A56B6AC1A6F0A76B6BC1A8F0A96BA1
:100908006CC1AAF0AB6B6FC1ACF0AD6BDAEC29F03F
:10091800020E066E010E79EC28F0460E046E010EEA
:10092800056EFAEC25F0660E0001BE6F760EBD6FFF
:10093800C10EE82EFED7BD2FFCD7BE2FFAD7460E24
:10094800016E010E026EDE0E036E7E0E046E000E48
:10095800066E110E056E2CEC2AF0010E066E010EC5
:1009680079EC28F0460E046E010E056EFAEC25F0BF
:10097800460E00019A6F010E9B6F8D0E9C6F7D0EC7
:100988009D6F58C19EF09F6B59C1A0F0A16B5AC1D1
:10099800A2F0A36B5BC1A4F0A56B5CC1A6F0A76B2A
:1009A8005EC1A8F0A96B5FC1AAF0AB6B60C1ACF0E7
:1009B800AD6B63C1AEF0AF6BDAEC29F0020E066ED8
:1009C800010E79EC28F0460E046E010E056EFAEC65
:1009D80025F0660E0001BE6F760EBD6FC10EE82EC3
:1009E800FED7BD2FFCD7BE2FFAD7460E016E010EDB
:1009F800026EBC0E036E7E0E046E000E066E110EA5
:100A0800056E2CEC2AF0010E066E010E79EC28F02A
:100A1800460E046E010E056EFAEC25F0460E000136
:100A28009A6F010E9B6FD50E9C6F7F0E9D6F7D0E8A
:100A38009E6F010E9F6FDAEC29F0020E066E010E12
:100A480079EC28F0460E046E010E056EFAEC25F0DE
:100A5800660E0001BE6F760EBD6FC10EE82EFED782
:100A6800BD2FFCD7BE2FFAD7460E016E010E026EBF
:100A78009A0E036E7E0E046E000E066E110E056E43
:100A88002CEC2AF0010E066E010E79EC28F0460EC9
:100A9800046E010E056EFAEC25F0460E00019A6F01
:100AA800010E9B6FB20E9C6F7F0E9D6F8F0E9E6F17
:100AB800010E9F6FDAEC29F0020E066E010E79EC3A
:100AC80028F0460E046E010E056EFAEC25F0660E4F
:100AD8000001BE6F760EBD6FC10EE82EFED7BD2F8A
:100AE800FCD7BE2FFAD7460E016E010E026EDF0E3E
:100AF800036E7F0E046E000E066E110E056E2CEC52
:100B08002AF0010E066E010E79EC28F0460E046EEE
:100B1800010E056EFAEC25F0460E00019A6F010EE3
:100B28009B6FBE0E9C6F7F0E9D6F870E9E6F010E92
:100B38009F6FDAEC29F0020E066E010E79EC28F0B0
:100B4800460E046E010E056EFAEC25F0660E0001E5
:100B5800BE6F760EBD6FC10EE82EFED7BD2FFCD737
:100B6800BE2FFAD7460E016E010E026EEF0E036E0F
:100B78007E0E046E000E066E110E056E2CEC2AF029
:100B8800010E066E010E79EC28F0460E046E010E79
:100B9800056EFAEC25F0460E00019A6F010E9B6F68
:100BA800880E9C6F7F0E9D6FA50E9E6F010E9F6F26
:100BB800DAEC29F0020E066E010E79EC28F0460EEA
:100BC800046E010E056EFAEC25F0660E0001BE6F8C
:100BD800760EBD6FC10EE82EFED7BD2FFCD7BE2FF7
:100BE800FAD7010E066E010E79EC28F0780E046E25
:100BF8007E0E056EFAEC25F0020E066E010E79ECFB
:100C080028F0780E046E7E0E056EFAEC25F0000EC4
:100C18000001EE6F140E026E7E0E036E98EC27F044
:100C28007F0E0001BE6FD40EBD6F310EE82EFED7C9
:100C3800BD2FFCD7BE2FFAD700D0DEEF00F007EFAC
:100C480000F0000E0001756F000E746F3EC086F054
:100C58003FC087F040C088F041C089F089BF39EFB4
:100C680006F037EF06F04FEF06F0000E756F010E35
:100C7800746F86C001F087C002F088C003F089C095
:100C880004F03CEC2BF001C086F002C087F003C0F2
:100C980088F004C089F0000E00018D6F000E8C6F83
:100CA800DDC078F0DEC079F074517511D8A45FEF1B
:100CB80006F061EF06F068EF06F0E1A566EF06F0D2
:100CC80068EF06F082EF06F074517511D8A46FEF43
:100CD80006F071EF06F077EF06F0000E616F2B0E4D
:100CE800606F7BEF06F0000E616F2D0E606F60C0C5
:100CF80000F28C4B8D2B7807D8A0790786C001F0BD
:100D080087C002F088C003F089C004F08AEC22F0A2
:100D180001040210D8A493EF06F095EF06F0E0EF77
:100D280006F0BF0E436EFF0E446E4250456E466A93
:100D38004350452644504622465007E11A0E455C6A
:100D4800D8B0A9EF06F0ABEF06F0BAEF06F0000E48
:100D580000018C25016E020E8D21026EE70E036ED6
:100D68007F0E046EACEC29F0C7EF06F0000E000110
:100D78008C25016E020E8D21026EEF0E036E7F0E22
:100D8800046EACEC29F00001FD0E7827FF0E7923E4
:100D98003CC012F03DC013F0000E146E020E156E2A
:100DA80078C016F079C017F035EC25F012C03CF089
:100DB80013C03DF02BEF0CF086C001F087C002F0A5
:100DC80088C003F089C004F08AEC22F001500210B8
:100DD800D8A4F1EF06F0F3EF06F027EF07F0BF0E07
:100DE800436EFF0E446E4250456E466A4350452698
:100DF80044504622465007E11A0E455CD8B007EF2A
:100E080007F009EF07F018EF07F0000E00018C2536
:100E1800016E020E8D21026EEB0E036E7F0E046EC4
:100E2800ACEC29F0C7EF06F0000E00018C25016E2E
:100E3800020E8D21026EF30E036E7F0E046EACEC73
:100E480029F0C7EF06F0000E00018E6F000E8F6FBD
:100E5800800E906F3F0E916F000E8B6F000E8A6FA1
:100E680086C001F087C002F088C003F089C004F092
:100E7800000E056E000E066E000E076E000E086E60
:100E8800ADEC26F0D8B04BEF07F04DEF07F0D0EF00
:100E980007F06CEF07F08EC00FF08FC010F090C015
:100EA80011F091C012F0000E136E000E146E200E99
:100EB800156E410E166ED6EC14F00FC08EF010C0F1
:100EC8008FF011C090F012C091F000018A4B8B2B6B
:100ED80086C028F087C029F088C02AF089C02BF086
:100EE800000E136E000E146E200E156E410E166E57
:100EF8008EC00FF08FC010F090C011F091C012F0AA
:100F0800D6EC14F00FC02CF010C02DF011C02EF04C
:100F180012C02FF088EC21F0D8B095EF07F097EFCA
:100F280007F04FEF07F0B7EF07F08EC00FF08FC054
:100F380010F090C011F091C012F0000E136E000E68
:100F4800146E200E156E410E166EEBEC16F00FC0E7
:100F58008EF010C08FF011C090F012C091F0000117
:100F68008A07D8A08B0786C028F087C029F088C0D8
:100F78002AF089C02BF08EC02CF08FC02DF090C0C5
:100F88002EF091C02FF088EC21F0D8A0CEEF07F01A
:100F9800D0EF07F099EF07F042C007F0086A7AEC43
:100FA8002AF0075000017B6F7BC07AF0670E7B192F
:100FB800D8A4E1EF07F0E3EF07F009EF08F0DF51FD
:100FC800E011D8A4EAEF07F0ECEF07F0F0EF07F034
:100FD800000EE06F010EDF6FE0BFFDEF07F0E0519C
:100FE80006E1DF05D8B0FBEF07F0FDEF07F003EFF0
:100FF80008F0000E776F060E766F12EF08F0DFC06C
:1010080076F0E0C077F012EF08F0E0BF0EEF08F0DE
:1010180010EF08F0FDEF07F003EF08F0670E7B19FB
:10102800D8A419EF08F01BEF08F04AEF08F08BAFCF
:1010380029EF08F0FC0E8A5DFF0E8B59D8A027EF28
:1010480008F029EF08F048EF08F0FF0E436EFF0E96
:10105800446E76C045F077C046F04350452644506C
:1010680046228A51455C4650800A476E8B51800A59
:101078004758D8A042EF08F044EF08F048EF08F0CE
:10108800660E7A6F4AEF08F0650E7A6F76C06CF0DC
:1010980077C06DF0670E7B19D8A455EF08F057EFAD
:1010A80008F067EF08F0660E7A19D8A45EEF08F02A
:1010B80060EF08F069EF08F08BBF67EF08F065EFA5
:1010C80008F069EF08F06C4B6D2B660E7A19D8A4FE
:1010D80070EF08F072EF08F092EF08F08BBF79EF2D
:1010E80008F077EF08F085EF08F0000E8E6F000E1D
:1010F8008F6F800E906F3F0E916F000E8B6F000EFA
:101108008A6F670E7B19D8B48CEF08F08EEF08F061
:1011180092EF08F08A516C278B516D23000E856F72
:10112800000E846F86C07CF087C07DF088C07EF09A
:1011380089C07FF08EC06EF08FC06FF090C070F0E5
:1011480091C071F023EF09F07CC00FF07DC010F062
:101158007EC011F07FC012F08EC013F08FC014F063
:1011680090C015F091C016F0EBEC16F00FC028F007
:1011780010C029F011C02AF012C02BF0F6EC19F0BB
:1011880028C080F029C081F02AC082F02BC083F0EB
:1011980080C001F081C002F082C003F083C004F077
:1011A80005EC21F001C072F002C073F07CC028F099
:1011B8007DC029F07EC02AF07FC02BF08EC013F0CE
:1011C8008FC014F090C015F091C016F080C00FF0D9
:1011D80081C010F082C011F083C012F0D6EC14F078
:1011E8000FC02CF010C02DF011C02EF012C02FF03F
:1011F8009DEC2AF028C07CF029C07DF02AC07EF042
:101208002BC07FF08EC00FF08FC010F090C011F08F
:1012180091C012F0000E136E000E146E200E156EA3
:10122800410E166EEBEC16F00FC08EF010C08FF06A
:1012380011C090F012C091F00001844B852B6C51C5
:10124800845D8551800A436E6D51800A4358D8A049
:1012580030EF09F032EF09F0A8EF08F08EC00FF078
:101268008FC010F090C011F091C012F0000E136EF4
:10127800000E146EA00E156E400E166ED6EC14F00D
:101288000FC080F010C081F011C082F012C083F04E
:101298007CC028F07DC029F07EC02AF07FC02BF0EA
:1012A80080C02CF081C02DF082C02EF083C02FF0BA
:1012B80088EC21F0D8B063EF09F065EF09F070EF22
:1012C80009F0000E0001806F000E816F000E826F22
:1012D800000E836F99EF09F07CC001F07DC002F029
:1012E8007EC003F07FC004F080C005F081C006F026
:1012F80082C007F083C008F0ADEC26F0D8A087EFD5
:1013080009F089EF09F099EF09F0000172B18FEF48
:1013180009F091EF09F099EF09F0000E806F000EC7
:10132800816F000E826F000E836F86C001F087C048
:1013380002F088C003F089C004F080C005F081C0C5
:1013480006F082C007F083C008F076EC12F001C006
:101358007CF002C07DF003C07EF004C07FF07CC04A
:1013680028F07DC029F07EC02AF07FC02BF0000E47
:10137800136E000E146E200E156E410E166E6EC0A2
:101388000FF06FC010F070C011F071C012F0D6EC01
:1013980014F00FC02CF010C02DF011C02EF012C0A8
:1013A8002FF088EC21F0D8A0DCEF09F0DEEF09F08F
:1013B80007EF0AF000018A4B8B2B6EC00FF06FC04D
:1013C80010F070C011F071C012F0000E136E000E14
:1013D800146E200E156E410E166ED6EC14F00FC06A
:1013E8006EF010C06FF011C070F012C071F0660E90
:1013F80000017A19D8A403EF0AF005EF0AF007EF05
:101408000AF06C4B6D2B6EC08EF06FC08FF070C001
:1014180090F071C091F0650E00017A19D8B417EFF9
:101428000AF019EF0AF01FEF0AF08AC06AF08BC0C1
:101438006BF023EF0AF0000E6B6F000E6A6F000E60
:10144800696F000E686F000E676F000E666F000E02
:10145800856F000E846F1EEF0BF07CC00FF07DC00F
:1014680010F07EC011F07FC012F08EC013F08FC054
:1014780014F090C015F091C016F0EBEC16F00FC008
:1014880028F010C029F011C02AF012C02BF0F6EC99
:1014980019F028C080F029C081F02AC082F02BC042
:1014A80083F080C001F081C002F082C003F083C0E5
:1014B80004F005EC21F001C072F002C073F00001E5
:1014C800E1B969EF0AF06BEF0AF088EF0AF07251A0
:1014D8007311D8A472EF0AF074EF0AF088EF0AF0DB
:1014E800670E7B19D8A47BEF0AF07DEF0AF088EF2E
:1014F8000AF06BBF84EF0AF082EF0AF088EF0AF077
:10150800664B672BD2EF0AF068516911D8A48FEFA8
:101518000AF091EF0AF0BBEF0AF06BBF98EF0AF000
:1015280096EF0AF0BBEF0AF0000E8C25D96E020E7A
:101538008D21DA6E2E0EDF6E8C4B8D2B7807D8A09E
:101548007907000E696F010E686FBBEF0AF0000E95
:101558008C25D96E020E8D21DA6E300EDF6E8C4B23
:101568008D2B7807D8A079076607D8A0670766513A
:101578006711D8A4C2EF0AF0C4EF0AF0ABEF0AF083
:10158800000E8C25D96E020E8D21DA6E7251300F45
:10159800DF6E8C4B8D2B7807D8A079077CC028F09C
:1015A8007DC029F07EC02AF07FC02BF08EC013F0DA
:1015B8008FC014F090C015F091C016F080C00FF0E5
:1015C80081C010F082C011F083C012F0D6EC14F084
:1015D8000FC02CF010C02DF011C02EF012C02FF04B
:1015E8009DEC2AF028C07CF029C07DF02AC07EF04E
:1015F8002BC07FF08EC00FF08FC010F090C011F09C
:1016080091C012F0000E136E000E146E200E156EAF
:10161800410E166EEBEC16F00FC08EF010C08FF076
:1016280011C090F012C091F000016A07D8A06B07B2
:10163800844B852B6C51845D8551800A436E6D51B6
:10164800800A4358D8B02BEF0BF02DEF0BF03BEF8F
:101658000BF08DBF39EF0BF08D5109E14B0E8C5D0E
:10166800D8A039EF0BF03BEF0BF031EF0AF06851DF
:101678006911D8A442EF0BF044EF0BF055EF0BF0D3
:10168800E1A949EF0BF04BEF0BF055EF0BF0000E13
:101698008C25D96E020E8D21DA6E2E0EDF6E8C4BE4
:1016A8008D2B000E8C25D96E020E8D21DA6E000E60
:1016B800DF6E650E7A19D8A464EF0BF066EF0BF0B5
:1016C800CCEF06F0000E856F4F0E846F000E842558
:1016D800D96E020E8521DA6E000EDF6E000E756F70
:1016E800000E746F8BBF7DEF0BF07BEF0BF085EF77
:1016F8000BF0000E756F010E746F8A6D8B1FD8B0DA
:101708008B2B000E776F020E766FB6EF0BF0840707
:10171800D8A08507000E8425D96E020E8521DA6EC1
:101728008AC001F08BC002F0000E046E0A0E036E30
:1017380055EC26F00150300FDF6E8AC001F08BC0E7
:1017480002F0000E046E0A0E036E98EC25F001C03C
:101758008AF002C08BF000017607D8A077077807D7
:10176800D8A079078A518B11D8A4BDEF0BF0BFEF31
:101778000BF08BEF0BF077BFCCEF0BF0775106E156
:101788007605D8B0CAEF0BF0CCEF0BF08BEF0BF06F
:101798008407D8A0850774517511D8A4D6EF0BF02B
:1017A800D8EF0BF0DEEF0BF0000E636F2B0E626FBD
:1017B800E2EF0BF0000E636F2D0E626F000E8425B2
:1017C800D96E020E8521DA6E62C0DFFF7807D8A0D5
:1017D80079078407D8A08507BF0E436EFF0E446EB5
:1017E8004250456E466A435045264450462246506C
:1017F80009E11A0E455CD8A004EF0CF006EF0CF0D6
:101808000CEF0CF0000E656F650E646F10EF0CF0B6
:10181800000E656F450E646F000E8425D96E020EAA
:101828008521DA6E64C0DFFF7807D8A07907000E3B
:101838008C25016E020E8D21026E000E8425036E2A
:10184800020E8521046EACEC29F0CCEF06F01200F4
:10185800CBC001F0CCC002F0CDC003F0CEC004F084
:10186800020E056E000E066E000E076E000E086E64
:101878007FEC20F0000E01240001C76F060E022045
:10188800C86FFF0E0320C96FFF0E0420CA6F040E35
:10189800056E000E066E000E076E000E086EC7C0BD
:1018A80001F0C8C002F0C9C003F0CAC004F07FEC60
:1018B80020F001C00FF002C010F003C011F004C006
:1018C80012F0040E056E000E066E000E076E000E76
:1018D800086EC7C001F0C8C002F0C9C003F0CAC092
:1018E80004F07FEC20F001C013F002C014F003C034
:1018F80015F004C016F0AEEC28F00FC031F010C09F
:1019080032F011C033F012C034F0000E056E080E2C
:10191800066E000E076E000E086E31C001F032C070
:1019280002F033C003F034C004F07FEC20F001C0B3
:101938000FF002C010F003C011F004C012F021EE45
:101948002AF0DECF13F0DDCF14F0000E14BEFF0E28
:10195800156E166EAEEC28F00FC0C3F010C0C4F0C0
:1019680011C0C5F012C0C6F021EE28F0DECF0FF08E
:10197800DDCF10F0000E10BEFF0E116E126EC7C044
:1019880013F0C8C014F0C9C015F0CAC016F0AEEC08
:1019980028F0D8900F341D6E10341E6E11341F6E4F
:1019A8001234206E0001C3511D24C36FC4511E2080
:1019B800C46FC5511F20C56FC6512020C66F0101D5
:1019C80026511D6E27511E6E1F6A206A1EC020F008
:1019D8001DC01FF01E6A1D6AC3C001F0C4C002F01A
:1019E800C5C003F0C6C004F0040E056E000E066EF6
:1019F800000E076E000E086E7FEC20F01D500124CB
:101A08000001C36F1E500220C46F1F500320C56F12
:101A180020500420C66F040E056E000E066E000EE0
:101A2800076E000E086EC7C001F0C8C002F0C9C03A
:101A380003F0CAC004F07FEC20F001C00FF002C030
:101A480010F003C011F004C012F0040E056E000E71
:101A5800066E000E076E000E086EC7C001F0C8C003
:101A680002F0C9C003F0CAC004F07FEC20F001C046
:101A780013F002C014F003C015F004C016F0AEEC69
:101A880028F00FC031F010C032F011C033F012C08E
:101A980034F021EE24F0DECF0FF0DDCF10F0000E91
:101AA80010BEFF0E116E126E000E056E200E066E31
:101AB800000E076E000E086E31C001F032C002F051
:101AC80033C003F034C004F07FEC20F001C013F001
:101AD80002C014F003C015F004C016F0AEEC28F0F4
:101AE8000FC025F010C026F011C027F012C028F052
:101AF800080E056E000E066E000E076E000E086ECC
:101B080025C001F026C002F027C003F028C004F069
:101B18007FEC20F001C01DF002C01EF003C01FF0D2
:101B280004C020F0020E056E000E066E000E076E51
:101B3800000E086EC7C013F0C8C014F0C9C015F075
:101B4800CAC016F021EE22F0DECF0FF0DDCF10F084
:101B5800000E10BEFF0E116E126EAEEC28F00FC014
:101B680001F010C002F011C003F012C004F07FECC5
:101B780020F001501D24296E02501E202A6E0350A9
:101B88001F202B6E045020202C6E29C001F02AC083
:101B980002F02BC003F02CC004F0000E056E000EFE
:101BA800066E040E076E000E086E7FEC20F001C072
:101BB800C7F002C0C8F003C0C9F004C0CAF0000EE4
:101BC8000001C7250F6E800EC821106E000EC921B6
:101BD800116E000ECA21126E20C113F021C114F03B
:101BE800156A166AAEEC28F00FC001F010C002F0BA
:101BF80011C003F012C004F0000E056E800E066ED0
:101C0800000E076E000E086E7FEC20F001C0C7F0D2
:101C180002C0C8F003C0C9F004C0CAF00001C7512F
:101C2800C811C911CA11D8A41CEF0EF01EEF0EF08E
:101C380020EF0EF0B1EF0FF0000E056E100E066EDD
:101C4800000E076E000E086EC3C001F0C4C002F09B
:101C5800C5C003F0C6C004F07FEC20F008C11DF039
:101C680009C11EF00AC11FF00BC120F01D1E1E1E67
:101C78001F1E201E1D2A000E1E221F222022015078
:101C88001D5C216E02501E58226E03501F58236E91
:101C980004502058246E000E21240F6E000E2220BE
:101CA800106E100E2320116E000E2420126E350EB9
:101CB800136E0C0E146E000E156E000E166EAEEC42
:101CC80028F00FC0BFF010C0C0F011C0C1F012C0A2
:101CD800C2F0800E0001C25DD8B075EF0EF077EF4C
:101CE8000EF094EF0EF0D890BF35016EC035026E3D
:101CF800C135036EC235046EC7C005F0C8C006F012
:101D0800C9C007F0CAC008F002EC27F001C0BFF054
:101D180002C0C0F003C0C1F004C0C2F0B0EF0EF0C2
:101D2800BFC001F0C0C002F0C1C003F0C2C004F0DF
:101D3800C7C005F0C8C006F0C9C007F0CAC008F09F
:101D480002EC27F0D89001340001BF6F0234C06F55
:101D58000334C16F0434C26FBFC01DF0C0C01EF091
:101D6800C1C01FF0C2C020F0040EC0EF0EF0D89022
:101D780020321F321E321D32E82EBBEF0EF01DC07E
:101D88000FF01EC010F01FC011F020C012F0BFC02D
:101D980021F0C0C022F0C1C023F0C2C024F0040E5C
:101DA800DBEF0EF0D8902432233222322132E82E93
:101DB800D6EF0EF021C013F022C014F023C015F0A6
:101DC80024C016F0AEEC28F00E0EF0EF0EF0D8900E
:101DD8001232113210320F32E82EEBEF0EF00FC034
:101DE8002DF010C02EF011C02FF012C030F021EEEF
:101DF80030F0DECF0FF0DDCF10F0000E10BEFF0E7A
:101E0800116E126E2DC013F02EC014F02FC015F0F5
:101E180030C016F0AEEC28F00FC001F010C002F090
:101E280011C003F012C004F0000E056E100E066E0D
:101E3800000E076E000E086E7FEC20F001C0C7F0A0
:101E480002C0C8F003C0C9F004C0CAF0BFC01DF08A
:101E5800C0C01EF0C1C01FF0C2C020F0030E3AEF90
:101E68000FF0D89020321F321E321D32E82E35EF87
:101E78000FF01DC00FF01EC010F01FC011F020C0E1
:101E880012F021EE2EF0DECF13F0DDCF14F0000EAD
:101E980014BEFF0E156E166EAEEC28F00FC001F0E2
:101EA80010C002F011C003F012C004F0000E056E5D
:101EB800200E066E000E076E000E086E7FEC20F0F6
:101EC80001C0C3F002C0C4F003C0C5F004C0C6F02E
:101ED8002CC11DF02DC11EF0000E1EBEFF0E1F6E80
:101EE800206E0001C7511D24216EC8511E20226E8C
:101EF800C9511F20236ECA512020246EC3512124AA
:101F0800016EC4512220026EC5512320036EC651B2
:101F18002420046E100E056E000E066E000E076E6D
:101F2800000E086E7FEC20F00001BF510124BF6F46
:101F3800C0510220C06FC1510320C16FC25104209B
:101F4800C26F1BC0D9FF1CC0DAFFBFC0DEFFC0C014
:101F5800DEFFC1C0DEFFC2C0DEFF12004AC0D9FFEB
:101F68004BC0DAFFDECFF6FFDDCFF7FF0800F550F4
:101F7800250AD8A4C2EF0FF0C4EF0FF05AEF12F001
:101F88004AC0D9FF4BC0DAFFDE2A000EDD22000E60
:101F98000001DE6F000EDD6FDDC0E1F0DEC0E2F0B3
:101FA800DF69E0694AC0D9FF4BC0DAFFDECFF6FF30
:101FB800DDCFF7FF0800F5502E0AD8A4E6EF0FF0A2
:101FC800E8EF0FF058EF10F0000EE06F000EDF6F33
:101FD8004AC0D9FF4BC0DAFFDE2A000EDD224AC014
:101FE800D9FF4BC0DAFFDECFF6FFDDCFF7FF0800E1
:101FF800F5502A0AD8A403EF10F005EF10F022EFED
:1020080010F04AC0D9FF4BC0DAFFDE2A000EDD22ED
:102018004CC0D9FF4DC0DAFFDFCF4EF0020EDE26EE
:10202800DFCF4FF0000EDD224EC0D9FF4FC0DAFFE0
:10203800DECFDFF0DDCFE0F058EF10F04AC0D9FF77
:102048004BC0DAFFDECF08F0DDCF09F078EC1DF0E9
:1020580008C0DFF009C0E0F039EF10F04AC0D9FF3E
:102068004BC0DAFFDE2A000EDD22D00E4E6EFF0EC8
:102078004F6E4AC0D9FF4BC0DAFFDECFF6FFDDCF87
:10208800F7FF0800F550506E516A4E5050264F50D9
:102098005122515009E10A0E505CD8A056EF10F0B9
:1020A80058EF10F032EF10F04AC0D9FF4BC0DAFFFA
:1020B800DECFF6FFDDCFF7FF0800F550076E086AA0
:1020C8007AEC2AF007505A6E5A50D8B46EEF10F0D6
:1020D80070EF10F0A8EF10F04AC0D9FF4BC0DAFF3C
:1020E800DECF4EF0DDCF4FF0010E4E26000E4F2210
:1020F8004EC0F6FF4FC0F7FF0800F550076E086A9C
:102108007AEC2AF007505B6E5B50D8B48EEF10F073
:1021180090EF10F0A8EF10F04AC0D9FF4BC0DAFFDB
:10212800DECF4EF0DDCF4FF0020E4E26000E4F22CE
:102138004EC0F6FF4FC0F7FF0800F550076E086A5B
:102148007AEC2AF007505C6E4AC0D9FF4BC0DAFF20
:10215800DECFF6FFDDCFF7FF0800F550630AD8A4FD
:10216800B8EF10F0BAEF10F0E1EF10F04AC0D9FF65
:102178004BC0DAFFDE2A000EDD224CC0D9FF4DC06D
:10218800DAFFDFCF4EF0020EDE26DFCF4FF0000E73
:10219800DD224EC0D9FF4FC0DAFFDF505D6E48C068
:1021A8000BF049C00CF05DC00DF064EC24F00BC0DE
:1021B80048F00CC049F075EF12F0660E5A18D8A412
:1021C800E8EF10F0EAEF10F02AEF11F04AC0D9FF5B
:1021D8004BC0DAFFDECFF6FFDDCFF7FF0800F5CF03
:1021E8005DF04AC0D9FF4BC0DAFFDE2A000EDD22BF
:1021F8004CC0D9FF4DC0DAFFDFCF4EF0040EDE260B
:10220800DFCF4FF0000EDD224EC0D9FF4FC0DAFFFE
:10221800DECF56F0DECF57F0DECF58F0DECF59F0E4
:1022280048C03CF049C03DF056C03EF057C03FF0B2
:1022380058C040F059C041F05DC042F025EC06F0AE
:102248003CC048F03DC049F075EF12F05A0E016EDF
:10225800000E026EFB0E036E7F0E046E000E066EFD
:10226800020E056E68EC1FF001500210D8A43FEF73
:1022780011F041EF11F0AFEF11F04AC0D9FF4BC098
:10228800DAFFDECF4EF0DDCF4FF0010E4E26000E06
:102298004F224EC0F6FF4FC0F7FF0800F5CF5DF0A4
:1022A800BF0E4E6EFF0E4F6E4AC0D9FF4BC0DAFF0D
:1022B800DECFF6FFDDCFF7FF0800F550506E516A0C
:1022C8004E5050264F505122515007E11A0E505C83
:1022D800D8B071EF11F073EF11F08DEF11F04CC021
:1022E800D9FF4DC0DAFFDFCF4EF0040EDE26DFCF78
:1022F8004FF0000EDD224EC0D9FF4FC0DAFFDECF0F
:1023080056F0DECF57F0DECF58F0DECF59F0A5EF0C
:1023180011F04CC0D9FF4DC0DAFFDFCF4EF0040EEC
:10232800DE26DFCF4FF0000EDD224EC0D9FF4FC0B2
:10233800DAFFDECF56F0DECF57F0DECF58F0DECF33
:1023480059F0020E4AC0D9FF4BC0DAFFDE26000E54
:10235800DD2214EF11F04AC0D9FF4BC0DAFFDECFFF
:10236800F6FFDDCFF7FF0800F550730AD8B4BFEFCA
:1023780011F0C1EF11F0DCEF11F04AC0D9FF4BC0EA
:10238800DAFFDECF01F0DDCF02F0F70E036E7F0E2D
:10239800046E000E066E030E056E68EC1FF0015009
:1023A8000210D8A4DAEF11F0DCEF11F024EF12F0EC
:1023B8004AC0D9FF4BC0DAFFDECFF6FFDDCFF7FF0B
:1023C8000800F550730AD8B4ECEF11F0EEEF11F0F5
:1023D800F4EF11F0000E556E030E546EF8EF11F085
:1023E800000E556E010E546E4AC0D9FF4BC0DAFF7D
:1023F8005450DE265550DD224CC0D9FF4DC0DAFFBF
:10240800DFCF4EF0020EDE26DFCF4FF0000EDD22CA
:102418004EC0D9FF4FC0DAFFDECF52F0DDCF53F008
:1024280048C00BF049C00CF052C00DF053C00EF07C
:10243800B5EC1CF00BC048F00CC049F075EF12F079
:102448004AC0D9FF4BC0DAFFDECFF6FFDDCFF7FF7A
:102458000800F550250AD8A434EF12F036EF12F030
:102468004DEF12F04AC0D9FF4BC0DAFFDE2A000E4A
:10247800DD22000E036E250E026E48C004F049C02E
:1024880005F0D0EC24F0000E496E010E486E75EF91
:1024980012F04AC0D9FF4BC0DAFFDE2A000EDD2257
:1024A800000E496E000E486E75EF12F04AC0D9FF53
:1024B8004BC0DAFFDECFF6FFDDCFF7FF0800F5509F
:1024C800026E036A48C004F049C005F0D0EC24F05D
:1024D8004AC0D9FF4BC0DAFFDE2A000EDD2247EFE3
:1024E80012F012000450800B0D6E045004240F6E7D
:1024F80003AE81EF12F083EF12F084EF12F00F8039
:102508000F50D8B48AEF12F08CEF12F0A1EF12F04E
:102518000F28D8A492EF12F094EF12F09CEF12F06B
:10252800000E016E000E026E000E036E000E046EA9
:10253800038E000E046EA9EF12F0000E016E000E5D
:10254800026E000E036E000E046E0850800B0E6EB5
:102558000D500E18D8B4B3EF12F0B5EF12F0B6EF75
:1025680012F00D8C085008240E6E07AEBEEF12F064
:10257800C0EF12F0C1EF12F00E800E50D8B4C7EFC2
:1025880012F0C9EF12F0DEEF12F00E28D8A4CFEF48
:1025980012F0D1EF12F0D9EF12F0000E056E000E16
:1025A800066E000E076E000E086E078E000E086E8F
:1025B800E6EF12F0000E056E000E066E000E076EB6
:1025C800000E086E0F500E5CD8B0EDEF12F0EFEF72
:1025D80012F016EF13F00DACF4EF12F0F6EF12F064
:1025E800F8EF12F0800E0D1A0FC010F00EC00FF0A9
:1025F80010C00EF001C010F005C001F010C005F0C9
:1026080002C010F006C002F010C006F003C010F0BF
:1026180007C003F010C007F004C010F008C004F0B1
:1026280010C008F0000E106E0F500EC009F00A6AB4
:10263800095E000E0A5A0ABE2BEF13F00A5009E190
:102648001A0E095CD8A02BEF13F02DEF13F064EFEE
:1026580013F00150021003100410D8A436EF13F041
:1026680039EF13F0010E3AEF13F0000E106E000E62
:10267800016E000E026E000E036E000E046E0EC098
:102688000FF06DEF13F010A04CEF13F04EEF13F0B6
:1026980054EF13F0D89010300109106E56EF13F074
:1026A800D890103201A05BEF13F05DEF13F05EEFEE
:1026B80013F0108E043404320332023201320F2A2E
:1026C8000E500F5CD8A06BEF13F06DEF13F047EFCF
:1026D80013F00DBC72EF13F074EF13F0B4EF13F0B6
:1026E8000F50D8A47AEF13F07CEF13F086EF13F0B5
:1026F800000E016E000E026E000E036E000E046ED8
:10270800D5EF14F005500126065002220750032287
:102718000850042204A093EF13F095EF13F041EF53
:1027280014F010A09AEF13F09CEF13F0A2EF13F03F
:10273800D89010300109106EA4EF13F0D890103221
:1027480001A0A9EF13F0ABEF13F0ACEF13F0108E6C
:10275800043404320332023201320F2A41EF14F0FA
:102768000550015C06500258075003580450800A6F
:10277800096E0850800A0958D8B0C5EF13F0C7EFA2
:1027880013F0F2EF13F00150055C096E0250065881
:102798000A6E035007580B6E045008580C6EFF0E53
:1027A8000924016EFF0E0A20026EFF0E0B20036E35
:1027B800FF0E0C20046E800E0D1A106C1050D8A459
:1027C800E8EF13F0EAEF13F0FAEF13F0010E012629
:1027D800000E022203220422FAEF13F00550015ED4
:1027E8000650025A0750035A0850045A0150021062
:1027F80003100410D8A403EF14F005EF14F03AEF17
:1028080014F01050D8A40BEF14F00DEF14F03AEFB9
:1028180014F0000E016E000E026E000E036E000E24
:10282800046ED5EF14F0D89001360236033604361C
:1028380010AE21EF14F023EF14F024EF14F0018010
:1028480010A029EF14F02BEF14F02FEF14F0D8801C
:10285800103631EF14F0D89010360F50D8B437EF47
:1028680014F039EF14F03AEF14F00F0603AE3FEF0F
:1028780014F041EF14F017EF14F0000E0E6E10AEC6
:1028880048EF14F04AEF14F062EF14F010C009F0AA
:102898007F0E0916D8B453EF14F055EF14F059EF22
:1028A80014F0010E0E6E62EF14F001A05EEF14F04A
:1028B80060EF14F062EF14F055EF14F00E50D8B436
:1028C80068EF14F06AEF14F095EF14F0010E01268A
:1028D800000E02220322042204A075EF14F077EF01
:1028E80014F095EF14F001C009F002C00AF003C01B
:1028F8000BF004C00CF00C340C320B320A320932E3
:1029080009C001F00AC002F00BC003F00CC004F0CB
:102918000F28D8B492EF14F094EF14F095EF14F058
:102928000F2A0F28D8B49BEF14F09DEF14F0A5EFF1
:1029380014F00F50D8A4A3EF14F0A5EF14F0B7EFDC
:1029480014F0000E016E000E026E000E036E000EF3
:10295800046E0F50D8A4B3EF14F0B5EF14F0B7EF2E
:1029680014F0000E0D6E0FA0BCEF14F0BEEF14F0C3
:10297800C1EF14F0038EC2EF14F0039ED8900F300D
:10298800046E0DAECAEF14F0CCEF14F0CDEF14F0D6
:10299800048E01C001F002C002F003C003F004C0BD
:1029A80004F012001250800B1B6E12501224216E7C
:1029B80011AEE1EF14F0E3EF14F0E4EF14F021802E
:1029C8002150D8B4EAEF14F0ECEF14F0FFEF14F054
:1029D8002128D8A4F2EF14F0F4EF14F0FCEF14F06F
:1029E800000E0F6E000E106E000E116E000E126EAD
:1029F800118E07EF15F0000E0F6E000E106E000E10
:102A0800116E000E126E1650800B1B1A16501624EB
:102A1800206E15AE12EF15F014EF15F015EF15F046
:102A280020802050D8B41BEF15F01DEF15F030EFC3
:102A380015F02028D8A423EF15F025EF15F02DEF79
:102A480015F0000E136E000E146E000E156E000EBB
:102A5800166E158E38EF15F0000E136E000E146EFC
:102A6800000E156E000E166E2050D8B43EEF15F00D
:102A780040EF15F048EF15F02150D8A446EF15F0B7
:102A880048EF15F052EF15F0000E0F6E000E106EA5
:102A9800000E116E000E126EEAEF16F015500F02BE
:102AA800F3CF26F0F4CF27F026501C6E1D6A1E6A5D
:102AB8001F6A2750226E236A246A256A145010025E
:102AC800F3CF26F0F4CF27F026501C26000E1D2247
:102AD8001E221F2227502226000E232224222522CE
:102AE80013501102F3CF26F0F4CF27F026501C26FE
:102AF800000E1D221E221F2227502226000E2322EE
:102B0800242225221EC01FF01DC01EF01CC01DF06F
:102B18001C6A13501002F3CF26F0F4CF27F026508A
:102B28001C2627501D22000E1E22000E1F221450A4
:102B38000F02F3CF26F0F4CF27F026501C2627509B
:102B48001D22000E1E22000E1F221EC01FF01DC0D7
:102B58001EF01CC01DF01C6A13500F02F3CF26F0A4
:102B6800F4CF27F026501C2627501D22000E1E22C7
:102B7800000E1F2215501002F3CF26F0F4CF27F0D5
:102B88002650222627502322000E2422000E25221A
:102B980014501102F3CF26F0F4CF27F02650222646
:102BA80027502322000E2422000E25221550110240
:102BB800F3CF26F0F4CF27F02650176E2750186E63
:102BC800196A1A6A19C01AF018C019F017C018F053
:102BD800176A1750222618502322195024221A50F7
:102BE80025221CC017F01DC018F01EC019F01FC008
:102BF8001AF0190E05EF16F0D8901A321932183259
:102C08001732E82E00EF16F017502226185023220C
:102C1800195024221A5025221EC01FF01DC01EF074
:102C28001CC01DF01C6A205021C017F0186A172616
:102C3800000E1822820E1724266EFF0E1820276E0B
:102C48003BEF16F0D89022362336243625361FAEB1
:102C580030EF16F032EF16F033EF16F02280D890EE
:102C68001C361D361E361F362606D8A0270624AE6B
:102C780040EF16F042EF16F026EF16F0000E206E29
:102C88001FAE49EF16F04BEF16F06FEF16F0FF0E80
:102C98001C14176EFF0E1D14186EFF0E1E14196EED
:102CA8007F0E1F141A6E1750181019101A10D8B466
:102CB80060EF16F062EF16F066EF16F0010E206E68
:102CC8006FEF16F022A06BEF16F06DEF16F06FEFB6
:102CD80016F062EF16F02050D8B475EF16F077EFC3
:102CE80016F09BEF16F0010E2226000E2322242256
:102CF800252225A082EF16F084EF16F09BEF16F040
:102D080022C017F023C018F024C019F025C01AF00B
:102D18001A341A3219321832173217C022F018C072
:102D280023F019C024F01AC025F0264A272A27BE06
:102D3800A6EF16F0275008E12628D8A0A6EF16F02F
:102D4800A8EF16F0B2EF16F0000E226E000E236EFA
:102D5800800E246E7F0E256EE0EF16F027BEBFEFC3
:102D680016F0275006E12604D8B0BDEF16F0BFEFE5
:102D780016F0CBEF16F0000E226E000E236E000E3A
:102D8800246E000E256E000E1B6EE0EF16F026C0B6
:102D980021F0FF0E2216FF0E23167F0E2416000EBA
:102DA800251621A0DAEF16F0DCEF16F0DDEF16F0AD
:102DB800248ED8902130256E1B50251222C00FF08A
:102DC80023C010F024C011F025C012F012001250D8
:102DD800800B1F6E12501224266E11AEF6EF16F0FD
:102DE800F8EF16F0F9EF16F026802650D8B4FFEF6A
:102DF80016F001EF17F016EF17F02628D8A407EF02
:102E080017F009EF17F011EF17F0000E0F6E000E14
:102E1800106E000E116E000E126E118E000E126EE4
:102E28001EEF17F0000E0F6E000E106E000E116EE2
:102E3800000E126E1650800B1F1A16501624276E9D
:102E480015AE29EF17F02BEF17F02CEF17F02780AE
:102E58002750D8B432EF17F034EF17F049EF17F0D6
:102E68002728D8A43AEF17F03CEF17F044EF17F0F3
:102E7800000E136E000E146E000E156E000E166E08
:102E8800158E000E166E51EF17F0000E136E000E21
:102E9800146E000E156E000E166E135014101510D9
:102EA8001610D8A45AEF17F05CEF17F074EF17F06C
:102EB800000E0F6E000E106E000E116E000E126ED8
:102EC800800E11127F0E12121F5012120FC00FF037
:102ED80010C010F011C011F012C012F0B7EF18F0C6
:102EE8002650D8A47AEF17F07CEF17F086EF17F08A
:102EF800000E0F6E000E106E000E116E000E126E98
:102F0800B7EF18F0275026C017F0186A175E000EA2
:102F1800185A7F0E1724206E000E1820216E0FC03D
:102F28001BF010C01CF011C01DF012C01EF0000EE6
:102F38000F6E000E106E000E116E000E126E000E57
:102F4800226E000E236E000E246E000E256E000EFB
:102F5800276EE7EF17F02750D8B4B5EF17F0B7EFA3
:102F680017F0CEEF17F0D8901B361C361D361E36DC
:102F7800D8900F3610361136123625AEC6EF17F038
:102F8800C8EF17F0C9EF17F00F80D8902236233614
:102F98002436253613501B5C14501C5815501D58E8
:102FA80016501E58D8A0DBEF17F0DDEF17F0E6EF4C
:102FB80017F0258C13501B5E14501C5A15501D5ABF
:102FC80016501E5A272A190E2764EDEF17F0EFEF57
:102FD80017F0AFEF17F01B501C101D101E10D8B4BF
:102FE800F8EF17F0FAEF17F012EF18F0228012EF4F
:102FF80018F0D8900F3610361136123625AE07EF76
:1030080018F009EF18F00AEF18F00F80D890223660
:103018002336243625362006D8A0210611AE17EF10
:1030280018F019EF18F0FDEF17F0000E276E25AE17
:1030380020EF18F022EF18F046EF18F0FF0E2214D8
:10304800176EFF0E2314186EFF0E2414196E7F0ED0
:1030580025141A6E1750181019101A10D8B437EF13
:1030680018F039EF18F03DEF18F0010E276E46EF13
:1030780018F00FA042EF18F044EF18F046EF18F0E0
:1030880039EF18F02750D8B44CEF18F04EEF18F07D
:1030980072EF18F0010E0F26000E102211221222D4
:1030A80012A059EF18F05BEF18F072EF18F00FC08C
:1030B80017F010C018F011C019F012C01AF01A3425
:1030C8001A3219321832173217C00FF018C010F020
:1030D80019C011F01AC012F0204A212A21BE7DEF32
:1030E80018F0215008E12028D8A07DEF18F07FEFD4
:1030F80018F08AEF18F0000E216E2068000E0F6E8F
:10310800000E106E000E116E000E126E21BE97EFAB
:1031180018F0215006E12004D8B095EF18F097EF89
:1031280018F0A5EF18F0000E216E000E206E000EAC
:103138000F6E000E106E000E116E000E126E000E55
:103148001F6E20C026F026A0ACEF18F0AEEF18F0E6
:10315800B1EF18F0118EB2EF18F0119ED89026300A
:10316800126E68EF17F01200F2EC23F001011A5109
:103178001D6E1B511E6E1F6A206AD8901D34216E69
:103188001E34226E1F34236E2034246E080E056E02
:10319800000E066E000E076E000E086ECFC001F01E
:1031A800D0C002F0D1C003F0D2C004F07FEC20F010
:1031B8002150015C0F6E22500258106E23500358A4
:1031C800116E24500458126E21EE1CF0DECF13F05D
:1031D800DDCF14F0000E14BEFF0E156E166EAEECA9
:1031E80028F00FC029F010C02AF011C02BF012C02F
:1031F8002CF029C001F02AC002F02BC003F02CC02B
:1032080004F0000E056E080E066E000E076E000E26
:10321800086E7FEC20F001C0C7F002C0C8F003C000
:10322800C9F004C0CAF001011A511D6E1B511E6E6F
:103238001F6A206A100E056E000E066E000E076EDD
:10324800000E086ECFC001F0D0C002F0D1C003F06C
:10325800D2C004F07FEC20F01D50015C0F6E1E50B0
:103268000258106E1F500358116E20500458126EE9
:1032780001011A51216E1B51226E236A246A100E15
:10328800056E000E066E000E076E000E086ECFC0AB
:1032980001F0D0C002F0D1C003F0D2C004F07FEC3E
:1032A80020F02150015C136E22500258146E2350F6
:1032B8000358156E24500458166EAEEC28F00FC053
:1032C80029F010C02AF011C02BF012C02CF0000E0B
:1032D800056E100E066E000E076E000E086E29C0F1
:1032E80001F02AC002F02BC003F02CC004F07FECE0
:1032F80020F001C00FF002C010F003C011F004C0AC
:1033080012F021EE1EF0DECF13F0DDCF14F0000E28
:1033180014BEFF0E156E166EAEEC28F00FC025F029
:1033280010C026F011C027F012C028F025C001F007
:1033380026C002F027C003F028C004F0000E056E76
:10334800400E066E000E076E000E086E7FEC20F031
:1033580001C0C3F002C0C4F003C0C5F004C0C6F089
:103368000001C351C725CB6FC451C821CC6FC551CB
:10337800C921CD6FC651CA21CE6FCBC00FF0CCC0CA
:1033880010F0CDC011F0CEC012F0050E136E000E75
:10339800146E000E156E000E166EAEEC28F0800E40
:1033A8000F24016E000E1020026E000E1120036E15
:1033B800000E1220046E000E056E010E066E000E41
:1033C800076E000E086E7FEC20F01BC0D9FF1CC0F2
:1033D800DAFF01C0DEFF02C0DEFF03C0DEFF04C06B
:1033E800DEFF120000C138F001C139F002C13AF025
:1033F80003C13BF028C038F029C039F02AC03AF0A0
:103408002BC03BF0810E2C6EFF0E2D6E38C02EF0B7
:1034180039C02FF03AC030F03BC031F0180E1AEF27
:103428001AF0D890313230322F322E32E82E15EF82
:103438001AF02E502C24366E000E2D20376E37BE13
:103448002FEF1AF0375009E1170E365CD8A02FEF8E
:103458001AF031EF1AF03BEF1AF028C028F029C013
:1034680029F02AC02AF02BC02BF0FEEF1AF037BE45
:1034780040EF1AF042EF1AF0B2EF1AF036C02CF013
:10348800FF0E2D6EFF0E2E6E7F0E2F6E000E306E0D
:103498002C6651EF1AF059EF1AF0303430322F32CF
:1034A8002E322D322C2E4CEF1AF02DC032F02EC0B9
:1034B80033F02FC034F030C035F0325038142C6E51
:1034C800335039142D6E34503A142E6E35503B1447
:1034D8002F6E2C502D102E102F10D8A476EF1AF026
:1034E80078EF1AF07AEF1AF031EF1AF038C02CF0B2
:1034F80039C02DF03AC02EF03BC02FF0200E8AEFD5
:103508001AF0D8902F322E322D322C32E82E85EF39
:103518001AF02C502D102E102F10D8B496EF1AF048
:1035280098EF1AF0A0EF1AF03250382633503922AB
:1035380034503A2235503B22321C2C6E331C2D6EEF
:10354800341C2E6E351C2F6E2C5038162D50391603
:103558002E503A162F503B16F6EF1AF038C02CF0C2
:1035680039C02DF03AC02EF03BC02FF0200EC2EF2C
:103578001AF0D8902F322E322D322C32E82EBDEF91
:103588001AF02C502D102E102F10D8A4CEEF1AF0B0
:10359800D0EF1AF0DAEF1AF0000E386E000E396E1E
:1035A800000E3A6E000E3B6EF6EF1AF0D8903834E3
:1035B8002C6E39342D6E3A342E6E3B342F6E2C50CF
:1035C8002D102E102F10D8B4ECEF1AF0EEEF1AF0E1
:1035D800F6EF1AF0000E386E000E396E800E3A6E55
:1035E800BF0E3B6E38C028F039C029F03AC02AF027
:1035F8003BC02BF01200FDEC2BF05E6E240E5E1823
:10360800D8A409EF1BF00BEF1BF0D9EF1BF0000E4D
:103618000001ED6F040EED6514EF1BF016EF1BF0C3
:1036280018EF1BF027EF1BF0FDEC2BF05E6E00018E
:10363800ED510A24D96E000E0B20DA6E5EC0DFFF52
:10364800ED2B0EEF1BF0000EEC6F0AC001F00BC063
:1036580002F0EB0E036E7C0E046E0CEC28F00150A9
:103668000210D8A43AEF1BF03CEF1BF0D9EF1BF087
:10367800CDEF1BF0FDEC2BF05E6E2C0E5E18D8A47F
:1036880048EF1BF04AEF1BF09FEF1BF00001EC2BFB
:10369800040EEC19D8B453EF1BF055EF1BF0CDEF27
:1036A8001BF0060EEC19D8B45CEF1BF05EEF1BF0B4
:1036B800CDEF1BF0000EED6FCDEF1BF0ED510624A2
:1036C800D96E000E0720DA6E5EC0DFFFED2BCDEF5E
:1036D8001BF0ED510C24D96E000E0D20DA6E5EC081
:1036E800DFFF6AEF1BF0ED510E24D96E000E0F209C
:1036F800DA6E5EC0DFFF6AEF1BF0ED511024D96E61
:10370800000E1120DA6E5EC0DFFF6AEF1BF0ED518C
:103718001224D96E000E1320DA6E5EC0DFFF6AEF46
:103728001BF0ED510824D96E000E0920DA6E5EC038
:10373800DFFF6AEF1BF00001EC51166E176A175095
:10374800000AD8B4AAEF1BF0CDEF1BF01650010AFF
:10375800D8B462EF1BF0020AD8B46DEF1BF0070A69
:10376800D8B46DEF1BF0010AD8B477EF1BF0030A49
:10377800D8B477EF1BF0010AD8B481EF1BF00F0A19
:10378800D8B48BEF1BF0010AD8B495EF1BF0CDEF3E
:103798001BF0090E0001EC65D4EF1BF0D6EF1BF00F
:1037A8003EEF1BF0D880DAEF1BF0D8901200096EBC
:1037B8000950D8B4E2EF1BF0E4EF1BF006EF1CF061
:1037C80004BEEBEF1BF0E9EF1BF006EF1CF001C0A5
:1037D80005F002C006F003C007F004C008F0051E9B
:1037E800061E071E081E052A000E062207220822AA
:1037F80005C00BF006C00CF007C00DF008C00EF0B5
:103808000EEF1CF001C00BF002C00CF003C00DF06D
:1038180004C00EF00150021003100410D8A417EFD2
:103828001CF019EF1CF023EF1CF0000E016E000EC7
:10383800026E000E036E000E046EB4EF1CF0960EBE
:103848000A6E2DEF1CF00A2AD8900E320D320C3277
:103858000B32000E0B14056E000E0C14066E000ED3
:103868000D14076EFE0E0E14086E05500610071094
:103878000810D8A442EF1CF044EF1CF027EF1CF00E
:1038880052EF1CF00A2A010E0B26000E0C220D2204
:103898000E22D8900E320D320C320B32000E0B1461
:1038A800056E000E0C14066E000E0D14076EFF0E4A
:1038B8000E14086E0550061007100810D8A467EFFC
:1038C8001CF069EF1CF046EF1CF071EF1CF00A06C3
:1038D800D8900B360C360D360E360DBE76EF1CF032
:1038E80078EF1CF080EF1CF0020E0A607EEF1CF0EF
:1038F80080EF1CF06BEF1CF00AB085EF1CF087EF2F
:103908001CF088EF1CF00D9ED8900A320AC005F012
:10391800066A076A086A05C008F0076A066A056A3F
:1039280005500B1206500C1207500D1208500E12BB
:103938000950D8B4A2EF1CF0A4EF1CF0ACEF1CF0B7
:1039480004BEABEF1CF0A9EF1CF0ACEF1CF00E8E20
:103958000BC001F00CC002F00DC003F00EC004F063
:10396800120021EEA9F010EE10F0060EDBCFE3FFF7
:10397800E806FCE20DC01BF00EC01CF01B501C102A
:10398800D8A4C9EF1CF0CBEF1CF0CFEF1CF0100E41
:103998001B6E000E1C6E1BC001F01CC002F074EC04
:1039A8002BF001C01FF002C020F0DFC01DF0E0C006
:1039B8001EF01EBEE2EF1CF0E4EF1CF0F9EF1CF065
:1039C8001F501D5C1E50800A0F6E2050800A0F5831
:1039D800D8A0F1EF1CF0F3EF1CF0F5EF1CF0F9EFB5
:1039E8001CF01DC01FF01EC020F01FC01DF020C01D
:1039F8001EF0DDC019F0DEC01AF00001E1B107EFDA
:103A08001DF009EF1DF026EF1DF017EF1DF0000E59
:103A1800036E200E026E0BC004F00CC005F0D0EC53
:103A280024F01F4A202A19501F5C2050800A0F6E6C
:103A38001A50800A0F58D8A024EF1DF026EF1DF069
:103A48000BEF1DF0000E186E000E176E3FEF1DF005
:103A58001BC0D9FF1CC0DAFFDF500F6E0F50026E7B
:103A6800036A0BC004F00CC005F0D0EC24F01B4A2C
:103A78001C2A174A182A1D50175C1850800A0F6E06
:103A88001E50800A0F58D8A04CEF1DF04EEF1DF0C5
:103A98002CEF1DF00001E1A154EF1DF056EF1DF0D1
:103AA80073EF1DF064EF1DF0000E036E200E026E22
:103AB8000BC004F00CC005F0D0EC24F01F4A202AFB
:103AC80019501F5C2050800A0F6E1A50800A0F5838
:103AD800D8A071EF1DF073EF1DF058EF1DF01FC057
:103AE8000BF020C00CF01200000E116E000E106ECC
:103AF800000E0F6E000E0E6E84EF1DF0084A092AA4
:103B080008C0F6FF09C0F7FF0800F550200AD8B42E
:103B180090EF1DF092EF1DF082EF1DF0F70E0A6E88
:103B2800FF0E0B6E08C0F6FF09C0F7FF0800F5503E
:103B38000C6E0D6A0A500C260B500D220D5009E12F
:103B4800050E0C5CD8A0ABEF1DF0ADEF1DF082EFB9
:103B58001DF0B7EF1DF0000E0F6E010E0E6E084A35
:103B6800092AECEF1DF008C0F6FF09C0F7FF0800AE
:103B7800F5500A6E0B6A0B50000AD8B4C6EF1DF058
:103B8800ECEF1DF00A502B0AD8B4B3EF1DF0060A6B
:103B9800D8B4AFEF1DF0ECEF1DF010C001F011C06C
:103BA80002F0000E046E0A0E036EEAEC2BF008C059
:103BB800F6FF09C0F7FF0800F550015E000E025A33
:103BC800300E0124106E000E0220116EB3EF1DF0AE
:103BD800D00E0A6EFF0E0B6E08C0F6FF09C0F7FF85
:103BE8000800F5500C6E0D6A0A500C260B500D2279
:103BF8000D5009E10A0E0C5CD8A005EF1EF007EF86
:103C08001EF0D1EF1DF00E500F10D8A40EEF1EF0CD
:103C180010EF1EF01EEF1EF010C00AF011C00BF0DE
:103C28000A1E0B1E0A4A0B2A0AC008F00BC009F02C
:103C380022EF1EF010C008F011C009F0120020ECAD
:103C48002CF080EC23F0D8A02CEF1EF02EEF1EF005
:103C5800BEEF1EF0FA0E016E000E026E0AEC22F0A4
:103C6800D8B039EF1EF03BEF1EF06FEF1EF0F90EE3
:103C7800016E000E026E0AEC22F0D8B046EF1EF07C
:103C880048EF1EF06FEF1EF0FC0E016E000E026E84
:103C98000AEC22F0D8B053EF1EF055EF1EF06FEF8C
:103CA8001EF0FB0E016E000E026E0AEC22F0D8B078
:103CB80060EF1EF062EF1EF06FEF1EF0F80E016E5F
:103CC800000E026E0AEC22F0D8A06DEF1EF06FEF26
:103CD8001EF077EF1EF0A60E026E7F0E036E98ECB4
:103CE80027F0C4EF1EF00001F951FAC00BF00C6A7E
:103CF8000B26000E0C22FC510B26000E0C22FB5149
:103D08000B26000E0C220B50F819D8A48EEF1EF0CB
:103D180090EF1EF0B6EF1EF020EE10F00950D926F5
:103D28000A50DA22FAC001F0026A000E046E0A0E86
:103D3800036E98EC25F00150300FDF6E20EE11F085
:103D48000950D9260A50DA22FAC001F0026A000E98
:103D5800046E0A0E036E55EC26F00150300FDF6E2C
:103D6800C4EF1EF0540E026E7E0E036E98EC27F020
:103D7800C4EF1EF0370E026E7D0E036E98EC27F02E
:103D8800CD9012000D6ED00EA8EC2BF0580AD8B4C6
:103D9800D0EF1EF0D2EF1EF0D5EF1EF0000E67EF49
:103DA8001FF0B60E026EE00E4FEC2CF0030E0C6EF8
:103DB8008A0E0B6E560EE82EFED70B2EFCD70C2E55
:103DC800FAD7F30EA8EC2BF00B6E0BB0EEEF1EF04B
:103DD800F0EF1EF0DAEF1EF0880EE2EC2AF002C0D7
:103DE8001AF103C01BF18A0EE2EC2AF002C01CF1A2
:103DF80003C01DF18C0EE2EC2AF002C01EF103C0D4
:103E08001FF18E0EE2EC2AF002C020F103C021F16E
:103E1800900EE2EC2AF002C022F103C023F1920EC8
:103E2800E2EC2AF002C024F103C025F1940EE2EC82
:103E38002AF002C026F103C027F1960EE2EC2AF020
:103E480002C028F103C029F1980EE2EC2AF002C062
:103E58002AF103C02BF19A0EE2EC2AF002C02CF1F1
:103E680003C02DF19C0EE2EC2AF002C02EF103C033
:103E78002FF19E0EE2EC2AF002C030F103C031F1BE
:103E880009C00BF0D8900B36D8900B360A38E846A4
:103E9800E00B0B10FC0B0F6E08C00BF0D8900B3624
:103EA800D8900B360738E846E00B0B100D100E6E55
:103EB8000FC002F0F50E4FEC2CF00EC002F0F40E1D
:103EC8004FEC2CF0010E120001C008F002C009F0FE
:103ED80003C00AF004C00BF00506D8A006060528A2
:103EE80006E10628D8A47BEF1FF07DEF1FF08AEFCC
:103EF8001FF0000E026E000E016EF4EF1FF0084A6C
:103F0800092A0A4A0B2A0506D8A0060608C0F6FFA1
:103F180009C0F7FFF86A070EF76403D00800F550E8
:103F280005D0F6CFE1FFF7CFE2FFE7500009D8B49C
:103F3800A0EF1FF0A2EF1FF0D8EF1FF00AC0F6FFA6
:103F48000BC0F7FF0800F5500009D8B4AEEF1FF01A
:103F5800B0EF1FF0D8EF1FF005500610D8B4B7EF38
:103F68001FF0B9EF1FF0D8EF1FF00AC0F6FF0BC023
:103F7800F7FF0800F5CF07F008C0F6FF09C0F7FF04
:103F8800F86A070EF76403D00800F55005D0F6CF9D
:103F9800E1FFF7CFE2FFE7500718D8B4D6EF1FF0DC
:103FA800D8EF1FF083EF1FF008C0F6FF09C0F7FF36
:103FB800F86A070EF76403D00800F55005D0F6CF6D
:103FC800E1FFF7CFE2FFE750076E0AC0F6FF0BC02C
:103FD800F7FF0800F550075C016E026AD8A00206D8
:103FE8001200FDEC2BF05E6E240E5E18D8A4FFEFD5
:103FF8001FF001EF20F07DEF20F0000E0001ED6FC3
:10400800040EED650AEF20F00CEF20F00EEF20F023
:104018001DEF20F0FDEC2BF05E6E0001ED510A243F
:10402800D96E000E0B20DA6E5EC0DFFFED2B04EFB9
:1040380020F0000EEC6F0AC001F00BC002F0E50E94
:10404800036E7C0E046E0CEC28F001500210D8A40C
:1040580030EF20F032EF20F07DEF20F071EF20F00C
:10406800FDEC2BF05E6E2C0E5E18D8A43EEF20F00F
:1040780040EF20F05BEF20F00001EC2B000EED6F1D
:1040880071EF20F0ED510824D96E000E0920DA6E88
:104098005EC0DFFFED2B71EF20F0ED510624D96EE5
:1040A800000E0720DA6E5EC0DFFF4EEF20F0000141
:1040B800EC510E6E0F6A0F50000AD8B466EF20F06C
:1040C80071EF20F00E50070AD8B446EF20F00E0A20
:1040D800D8B451EF20F071EF20F0090E0001EC6523
:1040E80078EF20F07AEF20F034EF20F0D8807EEFE0
:1040F80020F0D8901200000E0A6E08BE88EF20F05B
:1041080086EF20F092EF20F0081E071E061E056CB1
:10411800000E062207220822010E0A6E04BE99EF3D
:1041280020F097EF20F0A3EF20F0041E031E021EDC
:10413800016C000E022203220422010E0A1A000E4C
:104148000B6E000E0C6E000E0D6E000E0E6E0550FE
:10415800061007100810D8B4B4EF20F0B6EF20F01E
:10416800ECEF20F0010E096EC0EF20F0D890053674
:10417800063607360836092A08AEC5EF20F0C7EF1D
:1041880020F0BAEF20F0D8900B360C360D360E36EC
:104198000550015C0650025807500358085004584F
:1041A800D8A0D9EF20F0DBEF20F0E4EF20F00550A5
:1041B800015E0650025A0750035A0850045A0B80F1
:1041C800D8900832073206320532092EC7EF20F0A0
:1041D8000A50D8B4F2EF20F0F4EF20F0FCEF20F012
:1041E8000E1E0D1E0C1E0B6C000E0C220D220E2234
:1041F8000BC001F00CC002F00DC003F00EC004F0BB
:104208001200033404340A6E0A50D8A40EEF21F0C9
:1042180010EF21F01AEF21F0000E016E000E026E71
:10422800000E036E000E046E87EF21F001C005F04A
:1042380002C006F003C007F004C008F0200E2AEF01
:1042480021F0D8900832073206320532E82E25EFE1
:1042580021F00550096E038EFF0E0116FF0E02169F
:10426800FF0E0316000E0416960E0A5E0ABE41EFF4
:1042780021F03FEF21F057EF21F00A50800A970F05
:10428800D8B049EF21F04BEF21F04DEF21F010EFBE
:1042980021F0D89004320332023201320A3E4DEF47
:1042A80021F06FEF21F01F0E0A645DEF21F05FEF40
:1042B80021F067EF21F010EF21F0D8900136023697
:1042C800033604360A060A50D8A46DEF21F06FEFC2
:1042D80021F061EF21F00950D8B475EF21F077EFA4
:1042E80021F07FEF21F0041E031E021E016C000E58
:1042F80002220322042201C001F002C002F003C01E
:1043080003F004C004F01200000E2814306E000EF2
:104318002914316E800E2A14326E7F0E2B14336EE0
:104328003050311032103310D8A49DEF21F09FEF98
:1043380021F0A7EF21F0000E286E000E296E000E66
:104348002A6E000E2B6E000E2C14306E000E2D14EB
:10435800316E800E2E14326E7F0E2F14336E305055
:10436800311032103310D8A4BCEF21F0BEEF21F089
:10437800C6EF21F0000E2C6E000E2D6E000E2E6E74
:10438800000E2F6E2BAECBEF21F0CDEF21F0D6EF44
:1043980021F0286C291ED8B0292A2A1ED8B02A2A2A
:1043A800800E2B562FAEDBEF21F0DDEF21F0E6EF8C
:1043B80021F02C6C2D1ED8B02D2A2E1ED8B02E2AF6
:1043C800800E2F56000E281A000E291A000E2A1ADF
:1043D800800E2B1A000E2C1A000E2D1A000E2E1A03
:1043E800800E2F1A2C50285C2D5029582E502A58F0
:1043F8002F502B58D8B003EF22F005EF22F008EF2A
:1044080022F0D89009EF22F0D880120001C0D9FF1D
:1044180002C0DAFF000EDF6E000E076E000ECF6ED0
:10442800000ECE6E80A01BEF22F01DEF22F016EFDB
:1044380022F0CF50046E036ACE50056E066A035010
:104448000512045006122D0E055C010E0658D8A060
:1044580030EF22F032EF22F035EF22F0D88089EFEA
:1044680022F0000ECF6E000ECE6E80B03EEF22F02E
:1044780040EF22F039EF22F0CF50046E036ACE509D
:10448800056E066A0350051204500612F50E055C07
:10449800010E0658D8A053EF22F055EF22F057EF3F
:1044A80022F032EF22F0CF50046E036ACE50056E30
:1044B800066A0350051204500612065009E1C90E97
:1044C800055CD8A06AEF22F06CEF22F07FEF22F0B3
:1044D80007500708036E010E046E032A76EF22F0D8
:1044E800D8900436032E74EF22F001C0D9FF02C021
:1044F800DAFF0450DF12072A070E076486EF22F05E
:1045080088EF22F012EF22F0D890120004C10BF0CD
:1045180005C10CF006C10DF007C10EF001C00BF08B
:1045280002C00CF003C00DF004C00EF00BC005F083
:104538000CC006F00DC007F00EC008F0180EAAEF68
:1045480022F0D8900832073206320532E82EA5EF5D
:1045580022F00550096E0A6A09500A10D8A4B7EF6C
:1045680022F0B9EF22F0D9EF22F0D8900B34056E83
:104578000C34066E0D34076E0E34086E05500610A6
:1045880007100810D8A4CBEF22F0CDEF22F0D3EF1C
:1045980022F0000E026E020E016E08EF23F0000EEC
:1045A800026E030E016E08EF23F009280A10D8A442
:1045B800E0EF22F0E2EF22F004EF23F00BC005F069
:1045C8000CC006F00DC007F00EC008F0090ED89018
:1045D8000536063607360836E82EEBEF22F005508A
:1045E800061007100810D8B4FCEF22F0FFEF22F0F5
:1045F800010E00EF23F0000E016E026A08EF23F0AF
:10460800000E026E040E016E1200086E08C0EBF078
:10461800000E40EC2CF0020E076E040E066EBA0E69
:10462800E82EFED7062EFCD7072EFAD700D0030EA9
:1046380055EC2AF0210E066E760EE82EFED7062ED1
:10464800FCD700D0030E55EC2AF0210E066E760E2C
:10465800E82EFED7062EFCD700D0030E55EC2AF024
:10466800210E066E760EE82EFED7062EFCD700D059
:10467800020E55EC2AF0210E066E760EE82EFED7B5
:10468800062EFCD700D0280E55EC2AF0020E076E35
:10469800450E066EAA0EE82EFED7062EFCD7072E6C
:1046A800FAD70C0E55EC2AF0020E076E450E066E70
:1046B800AA0EE82EFED7062EFCD7072EFAD7010E33
:1046C80055EC2AF0020E076E450E066EAA0EE82E6D
:1046D800FED7062EFCD7072EFAD7060E55EC2AF081
:1046E800020E076E450E066EAA0EE82EFED7062E9F
:1046F800FCD7072EFAD71200000ECF6E000ECE6E32
:10470800CD8080B08AEF23F08CEF23F0A1EF23F067
:10471800CF50026E016ACE50036E046A0150031234
:1047280002500412F40E035C010E0458D8A09FEF47
:1047380023F0A1EF23F085EF23F0CF50026E016A3A
:10474800CE50036E046A0150031202500412F50E93
:10475800035C010E0458D8A0B4EF23F0B6EF23F0A1
:10476800B9EF23F0D890F1EF23F0000ECF6E000ED2
:10477800CE6E80A0C2EF23F0C4EF23F0D9EF23F070
:10478800CF50026E016ACE50036E046A01500312C4
:1047980002500412F40E035C010E0458D8A0D7EF9F
:1047A80023F0D9EF23F0BDEF23F0CF50026E016A5A
:1047B800CE50036E046A0150031202500412F50E23
:1047C800035C010E0458D8A0ECEF23F0EEEF23F0C1
:1047D800F0EF23F0B6EF23F0D8801200000E096E38
:1047E800A4EC2CF0EC0EC1EC2BF0F70EC1EC2BF086
:1047F80083EC2CF0A4EC2CF0ED0EC1EC2BF099EC32
:104808002CF0086E6CEC2CF099EC2CF0076E6CEC2C
:104818002CF099EC2CF0066E6CEC2CF006C002F033
:1048280007C003F008C004F009C005F0050E22EF28
:1048380024F0D8900532043203320232E82E1DEFFC
:1048480024F0FF0E02140101086FFF0E0314096F14
:104858000F0E04140A6F000E05140B6F99EC2CF060
:10486800086E6CEC2CF099EC2CF0076E6CEC2CF0CC
:1048780099EC2CF0066E8EEC2CF083EC2CF006C034
:1048880002F007C003F008C004F009C005F0050EE7
:1048980053EF24F0D8900532043203320232E82E66
:1048A8004EEF24F0FF0E02140001CF6FFF0E031429
:1048B800D06F0F0E0414D16F000E0514D26F1200C2
:1048C8000001DD51DE11D8A46CEF24F06EEF24F066
:1048D80074EF24F0DDC011F0DEC012F07AEF24F09E
:1048E800FF0EDD25116EFF0EDE21126EE1A17FEFB6
:1048F80024F081EF24F08AEF24F00DC002F0036A5F
:104908000BC004F00CC005F0D0EC24F012BE8FEF01
:1049180024F091EF24F093EF24F097EF24F0000EA9
:10492800126E000E116E000E106E000E0F6EA9EFC3
:1049380024F0000E036E200E026E0BC004F00CC0B3
:1049480005F0D0EC24F00F4A102A11500F5C1050DB
:10495800800A0E6E1250800A0E58D8A0B6EF24F0C6
:10496800B8EF24F09DEF24F00001E1B1BEEF24F090
:10497800C0EF24F0C9EF24F00DC002F0036A0BC0A9
:1049880004F00CC005F0D0EC24F0010E0F240B6EDF
:10499800000E10200C6E120004500510D8B4D7EF8A
:1049A80024F0D9EF24F0E2EF24F004500510D8A445
:1049B800E0EF24F0E2EF24F0E7EF24F0025078EC87
:1049C8002CF034EF25F020EE09F00450D9260550DC
:1049D800DA22DE50DE10D8B4F4EF24F0F6EF24F03B
:1049E80011EF25F020EE09F00450D9260550DA22FF
:1049F80010EE03F00450E1260550E222DE50E65C9A
:104A0800E650800A0A6EDE50800A0A58D8B00FEFC6
:104A180025F011EF25F034EF25F020EE03F00450D7
:104A2800D9260550DA22DECF06F0DDCF07F004C024
:104A3800D9FF05C0DAFFDECF08F0DDCF09F0065058
:104A48000824D96E07500920DA6E02C0DFFF20EE75
:104A580003F00450D9260550DA22DE2A000EDD22A2
:104A680012000001E1A13BEF25F03DEF25F047EFF3
:104A780025F014C00BF015C00CF012C00DF013C0D7
:104A88000EF0C0EC2AF017BE4CEF25F04EEF25F0E3
:104A980054EF25F016C01BF017C01CF058EF25F096
:104AA800000E1C6E000E1B6E000E1A6E000E196EA4
:104AB8006AEF25F0000E036E200E026E12C004F09D
:104AC80013C005F0D0EC24F0194A1A2A1B50195CBF
:104AD8001A50800A186E1C50800A1858D8A077EF10
:104AE80025F079EF25F05EEF25F00001E1B17FEFC9
:104AF80025F081EF25F08BEF25F014C00BF015C0E1
:104B08000CF012C00DF013C00EF0C0EC2AF014C067
:104B180001F015C002F074EC2BF01B500124126E4A
:104B28001C500220136E1200000E066E04BEA1EF88
:104B380025F09FEF25F0A7EF25F0036C041ED8B0F1
:104B4800042A010E066E02BEAEEF25F0ACEF25F08A
:104B5800B4EF25F0016C021ED8B0022A010E061A25
:104B6800000E086E000E076E03500410D8B4BFEF95
:104B780025F0C1EF25F0E9EF25F0010E056EC9EF2C
:104B880025F0D89003360436052A04AECEEF25F07A
:104B9800D0EF25F0C5EF25F0D8900736083603503A
:104BA800015C04500258D8A0DCEF25F0DEEF25F0B8
:104BB800E3EF25F00350015E0450025A0780D890B5
:104BC80004320332052ED0EF25F00650D8B4EFEFAB
:104BD80025F0F1EF25F0F5EF25F0076C081ED8B0A9
:104BE800082A07C001F008C002F01200000E096E82
:104BF8000001FE8136EF26F009500424066E000EEF
:104C08000520076E06C0F6FF07C0F7FFF86A070E13
:104C1800F76403D00800F55005D0F6CFE1FFF7CFD1
:104C2800E2FFE750F00B03EC2BF009500424066E6A
:104C3800000E0520076E06C0F6FF07C0F7FFF86AEA
:104C4800070EF76403D00800F55005D0F6CFE1FF52
:104C5800F7CFE2FFE750086E0838F00BF00B03ECD3
:104C68002BF0092A09500424066E000E0520076E51
:104C780006C0F6FF07C0F7FFF86A070EF76403D00F
:104C88000800F55005D0F6CFE1FFF7CFE2FFE75077
:104C98000009D8A452EF26F054EF26F000EF26F0D2
:104CA8001200000E066E02BE5EEF26F05CEF26F0E4
:104CB80064EF26F0016C021ED8B0022A010E066EBF
:104CC80004BE6BEF26F069EF26F06FEF26F0036C59
:104CD800041ED8B0042A03500410D8B476EF26F086
:104CE80078EF26F09CEF26F0010E056E80EF26F097
:104CF800D89003360436052A04AE85EF26F087EFF0
:104D080026F07CEF26F00350015C04500258D8A02E
:104D180090EF26F092EF26F096EF26F00350015E12
:104D28000450025AD89004320332052E87EF26F039
:104D38000650D8B4A2EF26F0A4EF26F0A8EF26F08C
:104D4800016C021ED8B0022A01C001F002C002F0B4
:104D58001200000E0114096E000E02140A6E800E75
:104D680003140B6E7F0E04140C6E09500A100B10FE
:104D78000C10D8A4C2EF26F0C4EF26F0CCEF26F032
:104D8800000E016E000E026E000E036E000E046E21
:104D9800000E0514096E000E06140A6E800E071424
:104DA8000B6E7F0E08140C6E09500A100B100C10B5
:104DB800D8A4E1EF26F0E3EF26F0EBEF26F0000EA3
:104DC800056E000E066E000E076E000E086E05508A
:104DD80001180FE1065002180CE10750031809E109
:104DE80008500418D8B4FBEF26F0FDEF26F000EFCA
:104DF80027F0D89001EF27F0D8801200000E096E36
:104E0800000E0A6E000E0B6E000E0C6E055006109A
:104E180007100810D8B413EF27F015EF27F04BEF61
:104E280027F0010E0D6E1FEF27F0D89005360636D5
:104E3800073608360D2A08AE24EF27F026EF27F0AC
:104E480019EF27F0D89009360A360B360C3605507C
:104E5800015C065002580750035808500458D8A05F
:104E680038EF27F03AEF27F043EF27F00550015EBF
:104E78000650025A0750035A0850045A0980D8901D
:104E880008320732063205320D2E26EF27F009C008
:104E980001F00AC002F00BC003F00CC004F01200CD
:104EA800020E49EC29F002C0E5F003C0E6F0E5C0C7
:104EB8002CF0E6C02DF0D8902D322C32D8902D321F
:104EC8002C32D8902D322C322CC0E5F02DC0E6F0D3
:104ED800E5C001F0E6C002F0036A046A000EDBECEC
:104EE8001BF001C00FF002C010F003C011F004C0A5
:104EF80012F06F0E136E120E146E830E156E3B0EAB
:104F0800166ED6EC14F00FC0D3F010C0D4F011C058
:104F1800D5F012C0D6F0D3C028F0D4C029F0D5C03F
:104F28002AF0D6C02BF01200000E066EB5EF27F05F
:104F380006500224046E000E0320056E04C0F6FF1E
:104F480005C0F7FFF86A070EF76403D00800F550AC
:104F580005D0F6CFE1FFF7CFE2FFE75078EC2CF071
:104F6800062A06500224046E000E0320056E04C0B3
:104F7800F6FF05C0F7FFF86A070EF76403D00800CC
:104F8800F55005D0F6CFE1FFF7CFE2FFE750000973
:104F9800D8A4D1EF27F0D3EF27F09CEF27F0120029
:104FA800949C948E0FC005F010C006F011C007F055
:104FB80012C008F0000E016E2D0E026E310E036E47
:104FC800010E046E7FEC20F001C013F002C014F053
:104FD80003C015F004C016F013C001F014C002F0AD
:104FE80015C003F016C004F0400E056E000E066EE4
:104FF800000E076E000E086E7FEC20F00104AF6E05
:10500800AC94AC98AB8EAC8AAC9CAB9CAB881200D1
:1050180012EF28F0014A022A034A042A01C0D9FFE4
:1050280002C0DAFFDF50056E03C0F6FF04C0F7FFC9
:105038000800F5500518D8A424EF28F026EF28F02A
:1050480032EF28F001C0D9FF02C0DAFFDF50D8A440
:1050580030EF28F032EF28F00EEF28F001C0D9FF2A
:1050680002C0DAFFDF50056E03C0F6FF04C0F7FF89
:105078000800F550055C016E026AD8A0020612000D
:10508800BC0EF66E580EF76E000EF86E01EEA9F023
:1050980010EE1CF00900F5CFEEFFE550E150FAE103
:1050A800780EF66E590EF76E000EF86E0900F5CF01
:1050B800FFF002EE00F0500EEE6AE806FDE101EEA8
:1050C80000F0A90EEE6AE806FDE10001FE6B00EEB5
:1050D800BFF03F0EEE6AE806FDE15E6A5F905F9200
:1050E800000EF86E000109EF00F0096E94EF28F049
:1050F8000950BF0F55EC2AF0ADEF28F00950930F77
:1051080055EC2AF0ADEF28F00950D30F55EC2AF0F2
:10511800ADEF28F009507F0F55EC2AF0ADEF28F0DD
:105128000650076E086A0850000AD8B49EEF28F0A7
:105138008EEF28F00750020AD8B47CEF28F0010A55
:10514800D8B482EF28F0070AD8B488EF28F08EEF99
:1051580028F01200000E176E000E186E000E196E61
:10516800000E1A6E0FA0BBEF28F0BDEF28F0C5EFB8
:1051780028F01350172614501822155019221650CB
:105188001A22D8901336143615361636D89012329D
:10519800113210320F320F50101011101210D8A403
:1051A800D8EF28F0DAEF28F0B6EF28F017C00FF0A4
:1051B80018C010F019C011F01AC012F01200030E36
:1051C80049EC29F002C0E5F003C0E6F0E5C001F0C3
:1051D800E6C002F0036A046A000EDBEC1BF001C0B3
:1051E8000FF002C010F003C011F004C012F0250E39
:1051F800136E060E146E010E156E3E0E166ED6EC6C
:1052080014F00FC0D3F010C0D4F011C0D5F012C004
:10521800D6F0D3C028F0D4C029F0D5C02AF0D6C023
:105228002BF01200040E49EC29F002C0E5F003C08F
:10523800E6F0E5C001F0E6C002F0036A046A000E79
:10524800DBEC1BF001C00FF002C010F003C011F03E
:1052580004C012F03B0E136E700E146ECE0E156E57
:105268003B0E166ED6EC14F00FC0D3F010C0D4F07D
:1052780011C0D5F012C0D6F0D3C028F0D4C029F0A0
:10528800D5C02AF0D6C02BF01200066EA4EC2CF084
:10529800800EC1EC2BF00650C1EC2BF083EC2CF007
:1052A800410E046EEE0EE82EFED7042EFCD700D079
:1052B800A4EC2CF0810EC1EC2BF099EC2CF0000141
:1052C800E96F6CEC2CF099EC2CF00001EA6F8EEC95
:1052D8002CF083EC2CF00001E951046EEA51E76FE1
:1052E80004C0E8F0E7C002F0E8C003F0120094C080
:1052F80098F095C099F0000E0001DC6F000EDB6F8E
:1053080099EF29F092C048F093C049F0980E4A6E80
:10531800000E4B6E96C04CF097C04DF0B2EC0FF0FB
:1053280048500001DB274950DC2398C0F6FF99C09C
:10533800F7FF0800F5500009D8A4A5EF29F0A7EF5A
:1053480029F086EF29F0DBC092F0DCC093F0120060
:1053580003C007F004C008F001C009F002C00AF059
:105368000750056E0850066E074A082A05C0F6FF62
:1053780006C0F7FFF86A09C0D9FF0AC0DAFF094A70
:105388000A2A070EF76403D00800F55005D0F6CFB7
:10539800E1FFF7CFE2FFE750DF6EDF50D8A4D7EF89
:1053A80029F0D9EF29F0B4EF29F012009E0E000180
:1053B800B06F000EB16F9AC0B2F09BC0B3F0000E90
:1053C800B66F000EB56F000EBC6F000EBB6FB20E4D
:1053D800926F000E936F9CC094F09DC095F0B00E34
:1053E800966F000E976F7BEC29F00001B5519A2556
:1053F800D96EB6519B21DA6E000EDF6E1200010ED7
:10540800076E200E01180210D8B40DEF2AF00FEF26
:105418002AF028EF2AF0F70E036EFF0E046E01C083
:1054280005F002C006F00350052604500622065077
:1054380009E1050E055CD8A024EF2AF026EF2AF032
:1054480028EF2AF0000E076E07C001F0026A12006A
:1054580003C009F004C00AF001C007F002C008F058
:1054680047EF2AF009C0F6FF0AC0F7FF0800F5CF9A
:105478000BF0094A0A2A07C0D9FF08C0DAFF0BC097
:10548800DFFF074A082A0506D8A00606052806E110
:105498000628D8A452EF2AF054EF2AF036EF2AF063
:1054A8001200056E0001FE910550F00B03EC2BF085
:1054B8000538F00BF00B03EC2BF00504D8B467EFBC
:1054C8002AF069EF2AF072EF2AF0020E0518D8A424
:1054D80070EF2AF072EF2AF079EF2AF00D0E046EC1
:1054E800FC0EE82EFED7042EFCD71200BF0E096E64
:1054F800FF0E0A6E07C00BF008C00CF009500B260F
:105508000A500C220C5007E11A0E0B5CD8B08FEF32
:105518002AF091EF2AF098EF2AF0200E0710076E74
:105528000850086E9CEF2AF007C007F008C008F082
:105538001200000E2C1A000E2D1A000E2E1A800EC4
:105548002F1A28C001F029C002F02AC003F02BC08E
:1055580004F02CC005F02DC006F02EC007F02FC0B7
:1055680008F076EC12F001C028F002C029F003C060
:105578002AF004C02BF01200000E116E000E106EFF
:10558800D1EF2AF00FC002F0036A0DC004F00EC07C
:1055980005F0D0EC24F0104A112A10500B24D96ED3
:1055A80011500C20DA6EDF500F6E0F50D8A4DFEFC9
:1055B8002AF0E1EF2AF0C6EF2AF01200046EA4ECFC
:1055C8002CF0EC0EC1EC2BF00450C1EC2BF083EC6A
:1055D8002CF0A4EC2CF0ED0EC1EC2BF099EC2CF097
:1055E800056E6CEC2CF099EC2CF0066E8EEC2CF021
:1055F80083EC2CF005C002F006C003F01200036E25
:10560800000E0001FEB1010E03120350FB0B40EC2B
:105618002CF000D000D000F00350040940EC2CF02E
:1056280000D000D000F00350FB0B40EC2CF0A60E8D
:10563800E82EFED700D01200BF0E036EFF0E046ED8
:1056480001C005F002C006F00350052604500622EA
:1056580006500AE11A0E055CD8A035EF2BF038EF9A
:105668002BF0010E39EF2BF0000E016E026A1200CA
:105678000150021003100410D8B445EF2BF047EF87
:105688002BF04FEF2BF0000E011A000E021A000E3D
:10569800031A800E041A01C001F002C002F003C010
:1056A80003F004C004F01200D00E036EFF0E046E67
:1056B80001C005F002C006F003500526045006227A
:1056C80006500AE10A0E055CD8A06DEF2BF070EFCA
:1056D8002BF0010E71EF2BF0000E016E026A120022
:1056E80001C003F002C004F07CEF2BF0014A022A4B
:1056F80001C0D9FF02C0DAFFDF50D8A486EF2BF033
:1057080088EF2BF07AEF2BF00350015C016E045008
:105718000258026E1200046E03500001E96F02C0C5
:10572800EAF0A4EC2CF0800EC1EC2BF00450C1EC94
:105738002BF00001E951C1EC2BF00001EA51C1EC5A
:105748002BF083EC2CF01200026EA4EC2CF0EC0E83
:10575800C1EC2BF00250C1EC2BF083EC2CF0A4EC44
:105768002CF0ED0EC1EC2BF099EC2CF0036E8EECC6
:105778002CF083EC2CF003501200016E01C0C9FF1D
:105788009E969EA6CAEF2BF0CCEF2BF0C5EF2BF020
:10579800C5ACD1EF2BF0D3EF2BF0D5EF2BF083EC8A
:1057A8002CF012009C0E0001AE6F000EAF6F000EC1
:1057B800926F000E936F9AC094F09BC095F0AE0E56
:1057C800966F000E976F7BEC29F0120001500302D0
:1057D800F3CF05F0F4CF06F001500402F35006268B
:1057E80002500302F350062605C001F006C002F07D
:1057F80012009EAA02EF2CF004EF2CF0FDEF2BF024
:10580800ABA209EF2CF00BEF2CF00DEF2CF0AB98BE
:10581800AB88AE5012000001E369E469FF0E036E25
:105828000268050E8FEC2BF0010E036E9F0E026EC0
:10583800000E8FEC2BF0120092908090A30E016E58
:10584800550EE82EFED7012EFCD700F08080320ED0
:10585800E82EFED79280120093829380C79CC78E51
:10586800C68AC650F00B0809C66EC69CC69E000EB6
:10587800C56E310EC86E1200026EA4EC2CF0000149
:10588800EB51C1EC2BF002500001FF11C1EC2BF0E1
:1058980083EC2CF01200036EA4EC2CF0EC0EC1EC9F
:1058A8002BF00350C1EC2BF00250C1EC2BF083EC31
:1058B8002CF01200286E756C6C2900B20148756DC9
:1058C800656461642028485225293A202030300038
:1058D800C59A9E96C5889EA674EF2CF076EF2CF09C
:1058E8006FEF2CF09E961200016E9EA87EEF2CF0B2
:1058F80080EF2CF079EF2CF001C0ADFF12009E96DE
:10590800C5849EA68AEF2CF08CEF2CF085EF2CF046
:105918009E961200C58A9E96C5889EA696EF2CF084
:1059280098EF2CF091EF2CF01200C5869E969EA65B
:10593800A0EF2CF0A2EF2CF09BEF2CF0C950120036
:10594800C5809EA6AAEF2CF0ACEF2CF0A5EF2CF0AA
:105958001200F28EF28CD09E9384F088F092F19827
:1059680012000600010E0001EE6FF0925F92110026
:015978000826
:107CE400004750474741004750524D43004C6F6E88
:107CF4006769747564653A20256325632563B02537
:107D04006325632E256325632563272025630D0AD8
:107D1400004C617469747564653A20202563256399
:107D2400B0256325632E25632563256327202563FA
:107D34000D0A004E6F20726573706F6E7365206656
:107D4400726F6D207468652073656E736F720D0AAF
:107D540000446174653A2020202020202563256397
:107D64002F256325632F256325630D0A0054696D50
:107D74006528555443293A20256325633A2563250C
:107D8400633A256325630D0A00256325632563B0E3
:107D9400256325632E25632563256327202563201A
:107DA40020200025632563B0256325632E256325E4
:107DB4006325632720256320202020002563256375
:107DC4002F256325632F2563256320202020202071
:107DD400202000256325633A256325633A2563251E
:107DE40063202020202020202000536174656C6CC7
:107DF400697465733A257320756E6974730D0A008E
:107E0400202042592053414D55454C204A4D2020B5
:107E14000D0A0D0A00416C7469747564653A20207A
:107E24002573206D736E6D0D0A00202020202043E1
:107E3400414E53415420202020200D0A00537065E8
